:100000000C9475010C949D010C949D010C94CC03EF
:100010000C94CC030C94CC030C949D010C94170607
:100020000C9425070C949D010C949D010C940005E3
:100030000C949D010C949D010C949D010C949D01C8
:100040000C94A40E0C949D010C949A030C947403CC
:100050000C949D010C949D010C949D010C949D01A8
:100060000C94D6030C949D01200000000000003089
:10007000007C82827C00310042FE02000032004699
:100080008A92620033004492926C0034001C64FE39
:1000900004003500F292928C0036007C92924C0063
:1000A0003700C08E90E00038006C92926C003900EE
:1000B0006492927C006100042A2A1E006200FE12F3
:1000C000120C0063000C1212120064000C1212FEDB
:1000D0000065001C2A2A18006600103E5050006778
:1000E000000815151E006800FE101E0000690000C3
:1000F0002E0000006A0002012E00006B00FE0814B2
:1001000012006C0000FE0200006D001E100E100EAA
:100110006E001E10100E006F000C12120C0070000A
:100120001F12120C0071000C12121F0072001E0828
:10013000101000730012292512007400103E1200E6
:100140000075001C02021E007618040204180077D5
:1001500018061C0618007800120C0C120079001802
:1001600005051E007A0012161A120041007E8888CA
:100170007E004200FE92926C0043007C828244002A
:100180004400FE82827C004500FE9292820046007E
:10019000FE9090800047007C82925C004800FE1038
:1001A00010FE00490082FE8200004A000C0202FCA0
:1001B000004B00FE1028C6004C00FE020202004D5B
:1001C00000FE403040FE4E00FE403008FE4F007CF6
:1001D0008282827C5000FE9090600051007C828A76
:1001E000847A5200FE9894620053006492924C000C
:1001F000540080FE8080005500FC0202FC00560086
:10020000F00C020CF05700FE043804FE5800C6380B
:1002100038C60059C0201E20C0005A00869AB2C2BB
:10022000002C00010E0C00002E0000060600002528
:100230007254781E2A4E2100007A0000003F0020F0
:100240004A3000002D0010101010002B08083E0846
:1002500008002F00020C3040002A2214081422004B
:100260003A000014000000400000000000007C4440
:100270007C00007C5C547454547C70107C74545C1E
:100280007C545C40407C7C547C74547C00000000B6
:10029000250028002B0004040404040404040202C2
:1002A00002020202030303030303010204081020F5
:1002B0004080010204081020010204081020000000
:1002C0000000240027002A000000000800020100AE
:1002D0000003040700000000000000000000000010
:1002E000230026002900A91B971B11241FBECFEF56
:1002F000D8E0DEBFCDBF11E0A0E0B1E0E4E6F5E478
:1003000002C005900D92AC39B107D9F725E0ACE9F0
:10031000B1E001C01D92AC39B207E1F711E0C4E7CA
:10032000D1E004C02197FE010E949C20C337D10771
:10033000C9F70E94330F0C94A5220C940000CF92B1
:10034000DF92EF92FF920F931F93CF93DF936C0195
:100350007A018B01C0E0D0E0CE15DF0581F0D80135
:100360006D918D01D601ED91FC910190F081E02D10
:10037000C6010995892B11F02196EECF7E01C701A8
:10038000DF91CF911F910F91FF90EF90DF90CF9071
:100390000895FC01538D448D252F30E0842F90E08B
:1003A000821B930B541710F0CF9608950197089570
:1003B000FC01918D828D981761F0828DDF01A80F6D
:1003C000B11D5D968C91928D9F5F9F73928F90E08F
:1003D00008958FEF9FEF0895FC01918D828D9817FE
:1003E00031F0828DE80FF11D858D90E008958FEF3B
:1003F0009FEF0895FC01918D228D892F90E0805C04
:100400009F4F821B91098F739927089587E093E08E
:100410000E94FA0121E0892B09F420E0822F08953F
:10042000FC01848DDF01A80FB11DA35ABF4F2C9191
:10043000848D90E001968F739927848FA689B78960
:100440002C93A089B1898C91837080648C93938D57
:10045000848D981306C00288F389E02D80818F7DFA
:1004600080830895EF92FF920F931F93CF93DF93B2
:10047000EC0181E0888F9B8D8C8D981305C0E889F5
:10048000F989808185FD26C0F62E0B8D10E00F5F67
:100490001F4F0F731127E02E8C8DE8120CC00FB682
:1004A00007FCFACFE889F989808185FFF5CFCE0175
:1004B0000E941002F1CF8B8DFE01E80FF11DE35A6F
:1004C000FF4FF0829FB7F8940B8FEA89FB898081F8
:1004D00080620AC09FB7F894EE89FF896083E8893B
:1004E000F98980818370806480839FBF81E090E080
:1004F000DF91CF911F910F91FF90EF900895CF93CF
:10050000DF93EC01888D8823C9F0EA89FB8980811B
:1005100085FD05C0A889B9898C9186FD0FC00FB6ED
:1005200007FCF5CF808185FFF2CFA889B9898C912E
:1005300085FFEDCFCE010E941002E7CFDF91CF9172
:10054000089580E090E0892B29F00E940602811135
:100550000C940000089585ED8093BC008091BC0050
:1005600084FDFCCF10926B02089540914702262F24
:1005700030E0240F311D21323105DCF420916B0273
:100580002430C9F4FC0180E090E0861758F43091E3
:1005900047022191DC01A95DBD4FA30FB11D2C9332
:1005A0000196F3CF80914702680F6093470280E085
:1005B000089581E0089582E0089508958FEF9FEFF8
:1005C00008958FEF9FEF08958091260290E0919516
:1005D000819591090895CF93DF93CB01EA01642FB0
:1005E0000E94B502CE01DF91CF910895CF93DF93A2
:1005F0001F92CDB7DEB7698361E0CE0101960E94FC
:10060000B50281E090E00F90DF91CF9108950895B9
:1006100080E090E008950E9489220F931F93CF936A
:10062000DF93EC0188819981009729F02A813B8131
:100630002617370788F48B016F5F7F4F0E94C32115
:10064000009761F0998388831B830A832C813D8105
:10065000232B11F4FC01108281E001C080E0DF91C6
:10066000CF911F910F910895EF92FF920F931F93D7
:10067000CF93DF93EC017B018A01BA010E940D0345
:100680002881398181110DC02115310519F0C90169
:100690000E943A21198218821D821C821B821A82B2
:1006A00006C01D830C83B701C9010E949E22CE01A2
:1006B000DF91CF911F910F91FF90EF900895FC0172
:1006C00011821082138212821582148261157105C3
:1006D00051F0FB0101900020E9F73197AF01461B73
:1006E000570B0C94340308951F920F920FB60F927C
:1006F00011242F933F934F935F936F937F938F9327
:100700009F93AF93BF93EF93FF9387E093E00E9493
:100710001002FF91EF91BF91AF919F918F917F91C7
:100720006F915F914F913F912F910F900FBE0F905E
:100730001F9018951F920F920FB60F9211242F93AE
:100740008F939F93EF93FF93E0911703F09118031A
:100750008081E0911D03F0911E0382FD12C0908103
:10076000809120038F5F8F7320912103821751F0B6
:10077000E0912003F0E0E95FFC4F958F8093200328
:1007800001C08081FF91EF919F918F912F910F90E8
:100790000FBE0F901F9018951F920F920FB60F92D9
:1007A00011240F900FBE0F901F9018951F920F925B
:1007B0000FB60F9211242F933F934F935F936F9334
:1007C0007F938F939F93AF93BF93EF93FF9380910A
:1007D000B900887F803609F49CC068F5883209F436
:1007E0005BC090F4803109F454C038F4882309F4D4
:1007F000F2C0883009F44DC0F2C0883109F44CC011
:10080000803209F45DC0EBC0803409F468C048F45C
:10081000803309F455C0883309F0E1C080936A023F
:10082000D4C0803509F44FC0883509F45DC08834E0
:1008300009F0D5C0D2C0883909F4C3C0A8F48837FC
:1008400009F467C038F4883609F463C0803709F4C6
:1008500060C0C5C0883809F4B4C0803909F45FC0ED
:10086000803809F0BCC05BC0803B09F484C038F418
:10087000803A09F466C0883A09F47DC0B0C0803C73
:1008800009F4A3C0883C09F4A0C0883B09F486C0E1
:10089000A6C08091900210C090918F0280918E022C
:1008A000981770F5E0918F0281E08E0F80938F0290
:1008B000F0E0E259FD4F80818093BB0085EC82C05F
:1008C00080936A028AC0E0918F0281E08E0F80934C
:1008D0008F028091BB00F0E0E259FD4F8083909140
:1008E0008F0280918E026AC0E0918F0281E08E0FAC
:1008F00080938F028091BB00F0E0E259FD4F80832E
:1009000080916D02811169C081E080936C0284EA5C
:100910005DC083E080936B0210926902CFCF80911B
:100920006902803208F04DC0E091690281E08E0FCB
:10093000809369028091BB00F0E0E75BFD4F80830C
:10094000BDCF85EC8093BC0010926B028091690250
:10095000803230F4E0916902F0E0E75BFD4F1082F5
:100960006091690270E089E492E0E0E0F0E00995CE
:100970001092690234C084E080936B0210924802A6
:1009800010924702E0E0F0E0099580914702811162
:1009900005C081E08093470210922702E09148024F
:1009A00081E08E0F80934802F0E0E95DFD4F808189
:1009B0008093BB009091480280914702981708F4F9
:1009C0007DCF85E88093BC000AC085EC8093BC0095
:1009D00010926B0204C010926A020E94AB02FF9157
:1009E000EF91BF91AF919F918F917F916F915F91A7
:1009F0004F913F912F910F900FBE0F901F90189520
:100A00001F920F920FB60F9211242F933F934F9383
:100A10005F936F937F938F939F93AF93BF93EF9366
:100A2000FF938091250287FF05C0109285001092E8
:100A300084001BC020912502022E000C330B8091F4
:100A4000C80390E02817390784F480912502082E06
:100A5000000C990BFC01EE0FFF1F8E0F9F1FFC0176
:100A6000EC55FC4F808186FD15C0809125028F5F7B
:100A70008093250220912502022E000C330B8091D9
:100A8000C80390E028173907C4F4809125028C3000
:100A900064F113C080912502082E000C990BFC0113
:100AA000EE0FFF1F8E0F9F1FFC01EC55FC4F808146
:100AB00060E08F730E94070CD8CF809184009091E2
:100AC0008500049680349C4918F480E49CE905C0B4
:100AD0008091840090918500049690938900809382
:100AE00088008FEF809325023BC0209184003091D5
:100AF000850080912502082E000C990BFC01EE0F59
:100B0000FF1F8E0F9F1FFC01EC55FC4F81819281CE
:100B1000820F931F90938900809388008091250213
:100B2000082E000C990BFC01EE0FFF1F8E0F9F1F6C
:100B3000FC01EC55FC4F808186FF12C0809125029C
:100B4000082E000C990BFC01EE0FFF1F8E0F9F1F4C
:100B5000FC01EC55FC4F808161E08F730E94070C13
:100B6000FF91EF91BF91AF919F918F917F916F9185
:100B70005F914F913F912F910F900FBE0F901F905B
:100B80001895E3E2F2E0DC01A056BE4F8C91808321
:100B900011968C9181838091230290912402089573
:100BA000CF93DF93EC014CE251E060E070E089EB21
:100BB00091E00E942A09D0930101C0930001DF91C6
:100BC000CF910895682F87E093E00C943202EF9262
:100BD000FF920F931F93CF93DF93162FE72EF82EDC
:100BE000092F82E00E94E205CCE9D1E0812F9E2D01
:100BF000AF2DB02F88839983AA83BB830E94E2051F
:100C000089810E94E2058A810E94E2058B81DF9141
:100C1000CF911F910F91FF90EF900C94E2058FEF11
:100C20000E94E20585E50E94E2050C94520B1F929A
:100C30000F920FB60F9211242F933F934F935F9310
:100C40006F937F938F939F93AF93BF93EF93FF9394
:100C500082E00E94DE0B2091990230919A022F5F70
:100C60003F4F30939A02209399029091FF0294365D
:100C700018F095E09093940290919402933071F063
:100C800018F4923031F046C09430F9F09530E1F12B
:100C900041C081113FC01092FF0227C08130D1F5C1
:100CA000E091FF028E0F8093FF02F0E080919902A5
:100CB00090919A02ED56FD4F808710929A02109201
:100CC000990284E08093940225C0811114C0E091C0
:100CD000FF0281E08E0F8093FF02F0E08091990285
:100CE00090919A02ED56FD4F808710929A021092D1
:100CF000990283E0E7CF8091990290919A0285361C
:100D0000910540F085E0DECF811104C010929A0277
:100D100010929902FF91EF91BF91AF919F918F91A6
:100D20007F916F915F914F913F912F910F900FBEE7
:100D30000F901F9018950F931F93CF93DF938C0103
:100D40006F3F710519F014F06FEF70E0EB01613047
:100D50007F4F14F4C1E0DFEFD7FD07C061E0F80179
:100D600084810E94070CBE0109C060E0F801848103
:100D70000E94070C662777276C1B7D0BF801858185
:100D8000DF91CF911F910F910C94E80D0E94410BC0
:100D900060E070E08DED93E00E949B0660E070E003
:100DA00087ED93E00C949B06609100017091010126
:100DB0007195619571098DED93E00E949B0680917C
:100DC0000001909101016AE070E00E94882087EDA7
:100DD00093E00C949B06809100019091010166EFD5
:100DE0007FEF0E9488208DED93E00E949B0660912A
:100DF00000017091010187ED93E00C949B066091D6
:100E00000001709101018DED93E00E949B066091BD
:100E100000017091010171956195710987ED93E071
:100E20000C949B0660910001709101017195619590
:100E300071098DED93E00E949B0660910001709115
:100E4000010187ED93E00C949B061F920F920FB661
:100E50000F9211242F933F934F935F936F937F9340
:100E60008F939F93AF93BF93EF93FF938091000372
:100E700090910103A0910203B0910303892B8A2B67
:100E80008B2B51F190910403E0910503F09106033F
:100E90008081892780838091000390910103A09134
:100EA0000203B0910303181619061A061B06F4F480
:100EB0008091000390910103A0910203B09103037C
:100EC0000197A109B1098093000390930103A093B6
:100ED0000203B09303030AC0809170008B7F80935C
:100EE000700060E08091C9030E94070CFF91EF91B0
:100EF000BF91AF919F918F917F916F915F914F9132
:100F00003F912F910F900FBE0F901F901895CF9388
:100F1000DF93C3EED3E061E088850E94070C61E0B7
:100F200089850E94070C60E089850E94070C60E0BB
:100F30008885DF91CF910C94070CCF93DF93C3EE9C
:100F4000D3E060E088850E94070C60E089850E94FC
:100F5000070C61E088850E94070C61E08985DF91BC
:100F6000CF910C94070CCF93DF93D82FC8E060E0AB
:100F70008091EB030E94070CD0FF02C061E001C02A
:100F800060E08091EC030E94070CD69561E08091AF
:100F9000EB030E94070CC15051F760E08091EB0316
:100FA0000E94070C61E08091EC030E94070C61E055
:100FB0008091EB030E94070C60E08091EC030E949B
:100FC000D30CC8EC8091EC030E94DE0B892B69F0F6
:100FD000C150C1F761E08091EC030E94D30C60E046
:100FE0008091EC030E94070CECCF61E08091EC0350
:100FF000DF91CF910C94D30C9091F103E091F20327
:10100000F091F303F8948181292F20958223818325
:101010008281892B828378948DE743E050E0815070
:1010200039F1DA011197F1F730813923C1F3F894DE
:101030008281822382838181892B81837894ABE7AB
:10104000B7E01197F1F7F8948181282321838281F9
:10105000892B8283A3E1B1E01197F1F78081982376
:1010600081E009F080E07894E3E6F6E03197F1F76B
:101070000895CF92DF92EF92FF920F931F93CF9339
:10108000DF9328E030E041E06FEF70E09FE0C92E91
:10109000D12CC3E2D0E007ED10E09091F103E09194
:1010A000F203F091F303592F5095F82EF42281F0BA
:1010B000F894F2805F2152835181592B5183DE01D4
:1010C0001197F1F75281952B92837894F8010FC014
:1010D000F894F2805F2152835181592B5183DB01B7
:1010E0001197F1F75281952B92837894F6013197FD
:1010F000F1F7440F2150310981F6F894E091F203A1
:10110000F091F30391818091F1038095892381838C
:10111000E091F203F091F30392818091F103892B26
:101120008283E091F203F091F30392818091F103C5
:101130008095892382837894DF91CF911F910F91BD
:10114000FF90EF90DF90CF900895EF92FF920F9372
:101150001F93CF93DF9300D000D0CDB7DEB78E01C1
:101160000F5F1F4F7E0125E0E20EF11CF801DC014C
:101170002D91CD012193EE15FF05C9F7D801EC9112
:10118000F0E0EC5CFE4F80818D93AE15BF05B9F7A2
:101190000E94870780E40E94B3070E949D070E9477
:1011A00087078091E8030E94B307F80181918F01BE
:1011B0000E94B3070E151F05C1F70E949D070E94EC
:1011C00087078091E9030E94B3070F900F900F905B
:1011D0000F90DF91CF911F910F91FF90EF900C94A2
:1011E0009D070F931F93CF93DF9300D000D0CDB70F
:1011F000DEB70E94F10803EE13E0F80181818087D9
:101200009081918761E00E94D30C61E0F8018185B3
:101210000E94D30C80E4F801848380EC85838AE803
:1012200086838091200190912101A0912201B091AB
:10123000230189839A83AB83BC83CE0101960E94EC
:10124000A5080F900F900F900F90DF91CF911F91F5
:101250000F9108958F929F92AF92BF92CF92DF929B
:10126000EF92FF92CF93DF93EC016A017B018091B3
:10127000C903282F30E0F901EA56FD4FE491F0E070
:10128000EE0FFF1FE457FD4F459154915093060315
:1012900040930503F901E655FD4FE491E093040303
:1012A00061E00E94D30CC114D104E104F10471F097
:1012B000DE01AA0FBB1FA70196010E94D31E28EED4
:1012C00033E040E050E00E941D1F03C02FEF3FEFCE
:1012D000A90120930003309301034093020350932C
:1012E00003034E01A12CB12C1092B0001092B1005A
:1012F0008091B0008C7F82608093B0008091B100BB
:10130000877F8093B10062E17AE780E090E0A501F9
:1013100094010E941D1FC0E0CF5FEC2FF0E0EE0FA4
:10132000FF1FEC5DFE4FC080D180C216D306A0F334
:1013300060E072E18AE790E0A50194010E941D1F20
:10134000E12CF12CCA01B901A70196010E941D1FD1
:1013500021502093B3008091B100887FC770C82BC3
:10136000C093B10080917000846080937000DF9121
:10137000CF91FF90EF90DF90CF90BF90AF909F9074
:101380008F900895CF93DF93F89482E08093B0001C
:101390008093B10094E69093B3001092B2008093D2
:1013A00070007894809394021092FF02C3E0D4E01E
:1013B0001F8A188E198E1A8E1B861A861D861C8609
:1013C0001E861F8640E050E06AE971E084E194E007
:1013D0000E943403188ADF91CF910895AB01BC01BC
:1013E0001092700081E08093B00089E08093B1009A
:1013F00082ED8093B30086E48093B4008091B000C6
:1014000080628093B0008BE99CE80197F1F78091AE
:10141000B0008F7D8093B0008BE496E40197F1F7E4
:1014200080E290E02BEB38E0ABEFB8E1E091B00068
:10143000E062E093B000F90140FF09C03197F1F795
:10144000E091B000EF7DE093B000FD0108C031975E
:10145000F1F7E091B000EF7DE093B000F901319732
:10146000F1F776956795579547950197F9F680912D
:10147000B00080628093B0008BEB98E00197F1F7A9
:101480008091B0008F7D8093B0000895833081F00B
:1014900028F4813099F08230A1F008958730A9F0C6
:1014A0008830B9F08430D1F4809180008F7D03C002
:1014B000809180008F7780938000089584B58F7726
:1014C00002C084B58F7D84BD08958091B0008F7770
:1014D00003C08091B0008F7D8093B00008953FB726
:1014E000F8948091930590919405A0919505B09101
:1014F000960526B5A89B05C02F3F19F00196A11DA2
:10150000B11D3FBFBA2FA92F982F8827820F911D99
:10151000A11DB11DBC01CD0142E0660F771F881FE0
:10152000991F4A95D1F708950F931F93CF93DF9397
:101530008C01C0E0D0E0F80184819581C817D907FB
:10154000A8F480819181009729F0FC01EC0FFD1F28
:10155000608101C060E0862F660F990BAA0BBB0B60
:10156000772766270E94EE092196E5CF60E070E0BC
:101570008AE090E0DF91CF911F910F910C94EE09DA
:10158000A0916504B0916604409167048091610464
:10159000909162049C01220F331F820F931F709160
:1015A0006304609164045FB7F8942C91342F3095F4
:1015B0003223242BE72FF62F8E0F9F1FE817F907F2
:1015C00081F0419168E02C9300C047FF3C93440FA9
:1015D00000C000C000C008F43C9300C06A9599F7B1
:1015E000EDCF5FBF089590E0E0E0F0E0209161046E
:1015F00030916204E217F307E0F4292F30E0A09164
:101600006304B0916404A20FB31F6C93A0916304B0
:10161000B0916404A20FB31F11968C93A091630440
:10162000B0916404A20FB31F12964C9331969D5F44
:10163000DDCF0C94C00A8150A82FB0E0E091610486
:10164000F0916204AE17BF07D0F4982F990F890F5D
:1016500090E0E0916304F0916404E80FF91F408387
:10166000E0916304F0916404E80FF91F61834091F5
:10167000630450916404FA01E80FF91F22830C946B
:10168000C00AEDE5F4E044815581CA01880F991F35
:10169000480F591F60E070E0868197810E94972271
:1016A0000C94C00A42E050E068E971E087E093E002
:1016B0000C949F01CF92DF92EF92FF92DC01A03257
:1016C00082E0B8070CF03EC0B7FD06C0A53BB105EF
:1016D0002CF0A4EBB0E002C0A0E0B0E08091D10318
:1016E00028E830E06901C81AD10887FDD394CC0CF2
:1016F000DD1CCC0CDD1C0D2C000CEE08FF088091CD
:10170000D20328E532E0281B310987FD3395220FEB
:10171000331F220F331FA901330F660B770B9A017A
:10172000AB012C193D094E095F090E94DE1E24EB16
:1017300030E040E050E00E94B41EC20ED31EE41E12
:10174000F51ED6019091D0039C3098F58091D1037D
:1017500048E850E0481B510987FD5395440F551F39
:10176000440F551FA417B5078CF08091D20328E5CC
:1017700032E0281B310987FD3395220F331F220FDA
:10178000331FAD012A173B070CF4A9014250510940
:10179000440F551F2FB7F894892F90E0FC01EE0FEE
:1017A000FF1F8E0F9F1FFC01EC55FC4F528341839E
:1017B0002FBFFF90EF90DF90CF900895CF93DF93EE
:1017C000282F30E0F901E853FD4F8491F901E655E7
:1017D000FD4FD491F901EA56FD4FC491CC2391F00D
:1017E00081110E94460AEC2FF0E0EE0FFF1FE45239
:1017F000FD4FA591B491EC91ED2381E090E021F4AF
:1018000080E002C080E090E0DF91CF9108951F93C7
:10181000CF93DF93282F30E0F901E853FD4F8491F7
:10182000F901E655FD4FD491F901EA56FD4FC491F7
:10183000CC23C1F0162F81110E94460AEC2FF0E054
:10184000EE0FFF1FE457FD4FA591B4919FB7F89499
:10185000111104C08C91D095D82302C0EC91DE2BDD
:10186000DC939FBFDF91CF911F910895EF92FF927C
:101870000F931F93CF93DF938C0161E0809123043A
:101880000E94070C60E0809124040E94070CC8E0CD
:10189000D0EC60E0809123040E94070C6D2F6170F2
:1018A000809124040E94070C61E0809123040E942F
:1018B000070CD695C15069F7E801780180E1E80E80
:1018C000F11C099118E060E0809123040E94070C4C
:1018D000602F6078809124040E94070C61E0809161
:1018E00023040E94070C000F115069F7EC16FD0647
:1018F00041F760E0809123040E94070C60E0809132
:1019000024040E94070C61E0809123040E94070CCC
:1019100061E080912404DF91CF911F910F91FF909E
:10192000EF900C94070CCF93DF93893018F4882341
:1019300021F001C088E081508860C82FC06861E054
:10194000809123040E94070C60E0809124040E948F
:10195000070CD8E060E0809123040E94070C6C2FF4
:101960006170809124040E94070C61E0809123043F
:101970000E94070CC695D15069F760E0809123045E
:101980000E94070C60E0809124040E94070C61E033
:10199000809123040E94070C61E080912404DF9170
:1019A000CF910C94070CCF93DF9390E0FC01E655A8
:1019B000FD4F2491FC01EA56FD4F8491882361F18B
:1019C00090E0880F991FFC01E254FD4FC591D4911E
:1019D000FC01E457FD4FA591B491611109C09FB777
:1019E000F8948881209582238883EC912E230BC064
:1019F000623061F49FB7F8948881322F3095832349
:101A00008883EC912E2B2C939FBF06C08FB7F89440
:101A1000E8812E2B28838FBFDF91CF91089561E05D
:101A2000809123040E94D30C61E0809124040E94E1
:101A3000D30CE9E2F4E0119284E0E933F807D9F736
:101A400081E0809327041092280489E294E00C94AA
:101A5000360C60E08091D4030E94D30C8091D403B3
:101A60000E94DE0B21E0892B09F420E0822F0895EB
:101A7000CF92DF92EF92FF920F931F936B017C0145
:101A800060E0809159040E94070C83E090E0019788
:101A9000F1F761E0809159040E94070C83E290E025
:101AA0000197F1F760E0809159040E94070C60E013
:101AB000809159040E94D30C8091590490E0FC015C
:101AC000E655FD4F6491FC01EA56FD4FE491F0E0CC
:101AD000EE0FFF1FE452FD4F85919491970186010F
:101AE0003F70462F0E94EE0E61157105810591052C
:101AF00049F0DC01CB010196A11DB11DBC01CD0156
:101B00009F7003C060E070E0CB011F910F91FF90C8
:101B1000EF90DF90CF900895CF939091D0039C30B9
:101B200008F052C0C82F61E00E94D30C8091D0030E
:101B3000E82FF0E09F01220F331FE20FF31FEC5557
:101B4000FC4FCF739081907CC92BC0831092D1033E
:101B50001092D2036CE00E9468209CE0899FB00143
:101B6000112440E050E09B01240F351FF901EE0FD6
:101B7000FF1F2E0F3F1FF901EC55FC4F908196FD82
:101B800016C04F5F5F4F4C30510569F781110FC090
:101B90001092800082E08093810010928500109264
:101BA0008400B19A80916F00826080936F00E09111
:101BB000D003F0E0CF01880F991FE80FF91FEC5513
:101BC000FC4F8081806480838091D003CF91089501
:101BD0001F93CF93DF93182FEB0161E00E94D30C8A
:101BE000209711F460E004C0CF3FD10539F461E0E3
:101BF000812FDF91CF911F910C94070CE12FF0E022
:101C0000E853FD4FE491E330F9F048F4E130B9F0E6
:101C1000E230A1F584B5806284BDC8BD34C0E73030
:101C2000E9F0E83019F1E43049F5809180008062F4
:101C300080938000D0938B00C0938A0024C084B529
:101C4000806884BDC7BD1FC080918000806880937C
:101C50008000D0938900C093880015C08091B000A7
:101C600080688093B000C093B3000DC08091B00035
:101C700080628093B000C093B40005C0C038D10525
:101C80000CF0B5CFAFCFDF91CF911F9108958E307B
:101C900008F08E508770806480937C0080917A0079
:101CA000806480937A0080917A0086FDFCCF8091D9
:101CB00078002091790090E0922B08958F929F9266
:101CC000AF92BF92CF92DF92EF92FF926B017C01B5
:101CD0000E946F0A4B015C01C114D104E104F104BC
:101CE000F1F00E946F0ADC01CB0188199909AA0959
:101CF000BB09883E9340A105B10570F321E0C21AEB
:101D0000D108E108F10888EE880E83E0981EA11C36
:101D1000B11CC114D104E104F10419F7DDCFFF9027
:101D2000EF90DF90CF90BF90AF909F908F900895ED
:101D30002FB7F89460918F0570919005809191056F
:101D4000909192052FBF08951F920F920FB60F9298
:101D500011242F933F938F939F93AF93BF938091C1
:101D60008F0590919005A0919105B09192053091C9
:101D7000970523E0230F2D3720F40196A11DB11DF7
:101D800005C026E8230F0296A11DB11D20939705DB
:101D900080938F0590939005A0939105B093920541
:101DA0008091930590919405A0919505B091960529
:101DB0000196A11DB11D8093930590939405A09366
:101DC0009505B0939605BF91AF919F918F913F91EB
:101DD0002F910F900FBE0F901F901895CF92DF920A
:101DE000EF92FF920F931F93E82FF92F05C0015038
:101DF00011092109310961F1908196239417B9F3F2
:101E000005C0015011092109310911F19081962372
:101E10009413F7CFC12CD12CE12CF12C0AC08FEFF9
:101E2000C81AD80AE80AF80A0C151D052E053F0540
:101E300079F080818623841791F36C2D7D2D8E2D72
:101E40009F2D1F910F91FF90EF90DF90CF900895FD
:101E500060E070E080E090E01F910F91FF90EF90C4
:101E6000DF90CF900895CF93DF93CDB7DEB766971D
:101E70000FB6F894DEBF0FBECDBF789484B58260F4
:101E800084BD84B5816084BD85B5826085BD85B51E
:101E9000816085BD80916E00816080936E0010929C
:101EA0008100809181008260809381008091810017
:101EB00081608093810080918000816080938000A8
:101EC0008091B10084608093B1008091B000816006
:101ED0008093B00080917A00846080937A00809132
:101EE0007A00826080937A0080917A00816080938A
:101EF0007A0080917A00806880937A001092C10005
:101F00000E94C60680E190E0909362048093610491
:101F100080E390E00E94A220909364048093630485
:101F20000E94410B0E94410B40E060E08AE00E9469
:101F3000F30A4CE251E060E070E086E291E00E943A
:101F40002A096CE271E080E090E00E945E0E40E0C1
:101F50006AE080E00E94F30A4CE251E060E070E049
:101F60008AE491E00E942A096CE271E080E090E04E
:101F70000E945E0E4AE060E080E00E94F30A4CE2BC
:101F800051E060E070E08EE591E00E942A096CE289
:101F900071E080E090E00E945E0E0E94410BE091B3
:101FA0001703F091180382E08083E0911303F0910E
:101FB00014031082E0911503F091160380E18083F1
:101FC00010921F03E0911B03F0911C0386E08083B5
:101FD000E0911903F0911A03808180618083E09180
:101FE0001903F0911A03808188608083E0911903BE
:101FF000F0911A03808180688083E0911903F09149
:102000001A0380818F7D8083809170008B7F809305
:10201000700060E08091C9030E94070C0E94C20911
:1020200017E0212E312C20910C0130910D014091AF
:102030000E0150910F012B8B3C8B4D8B5E8B809151
:10204000E40181110DC00E94980E6093E00170932D
:10205000E1018093E2019093E30181E08093E40148
:102060008091D80181110DC00E94980E6093D40117
:102070007093D5018093D6019093D70181E080932E
:10208000D8010E94980E0091D4011091D5012091A1
:10209000D6013091D701DC01CB01801B910BA20B43
:1020A000B30B893E9340A105B105B0F00E94C2096F
:1020B0000E94980E6093D4017093D5018093D6014D
:1020C0009093D70110920404109205041092060414
:1020D000109207040C944D1B8BE992E090930A0434
:1020E000809309048091FF0290E090930C04809308
:1020F0000B0420919402253011F00C944D1B20917B
:102100009B0226582D3540F48330910549F4809187
:102110009C0281528931C8F00E94C2090C944D1B67
:1021200083349105CCF380919C0283548F32A0F7C5
:1021300040E050E0BA0182E090E0FC01E556FD4F3E
:1021400020812850273048F0E7CF80919D028850A9
:10215000873010F7109208041DC0FC01E456FD4FB3
:1021600020812751233110F00C94F319769567954F
:10217000579547957068029682349105F1F680E292
:10218000809308044093040450930504609306046C
:102190007093070481E0809303040E94C2090E94A7
:1021A000980E6093D4017093D5018093D6019093DB
:1021B000D701109106040E94980E6093E00170937D
:1021C000E1018093E2019093E301812F90E0A0E090
:1021D000B0E080349105A105B10511F00C94FF1910
:1021E00081E0809317020E94410B40E06AE015C035
:1021F0008D309105A105B10510F40C94201A893198
:102200009105A105B10511F00C94491A82E0809363
:1022100017020E94410B40E060E08AE00E94F30A4E
:1022200012C089309105A105B10511F00C94381A3E
:1022300088E0809317020E94410B20E04AE06AE0A8
:1022400081E00E941B0B1092150287E093E00E9430
:10225000FA01181619064CF481E08093150287E004
:1022600093E00E94D8018093140280911502882384
:1022700011F40C940A19809114029091130285357F
:1022800061F491110AC0809112028F3FE1F481E064
:10229000809311028093130216C080931202992337
:1022A00091F0E0911102E23019F48093100207C01E
:1022B000E33028F090911002915090931002F0E0DA
:1022C000E056FE4F8083809111028F5F843318F4B3
:1022D0008093110204C01092110210921302809197
:1022E0001302882309F496C780911002811192C7C6
:1022F00080911102843008F48DC71092130200916E
:10230000A5018091A401823009F452C21CF48130ED
:1023100041F07EC7843009F479C7853009F476C767
:1023200077C71091A3018FEF0E94E20585E50E9417
:10233000E205812F0E94E2051091A601212F30E0D5
:10234000073009F403C18CF4023009F453C034F4AB
:10235000002309F4D7C1013059F127C205300CF42C
:10236000F5C0053009F409C120C20E3109F407C2D5
:1023700054F4013109F43FC1053109F472C10F3041
:1023800009F013C222C1033209F4A1C1023309F4D6
:1023900007C20F3109F009C2220F331FF901E05FB4
:1023A000FE4F108160E0812F0E94D30C812FEFC17E
:1023B00080915A0490E02817390769F0220F331FE3
:1023C000F901E658FE4F8081809358048181809303
:1023D000590410935A0468EF76EF80E090E00E9471
:1023E000380D0E94971D20E030E048E652E40E943C
:1023F000BB1FD9C19091A7014091EF0350E0241772
:10240000350741F4692F70E04091F00350E0641704
:10241000750749F1220F331FF901E658FE4F8081FD
:102420008093ED0321812093EE031093EF039093AB
:10243000F003923011F40C94721B90E0FC01E6550D
:10244000FD4FE491E093F103FC01EA56FD4FE49166
:10245000F0E0EE0FFF1FE452FD4F859194919093B1
:10246000F3038093F2030E94FC078CEC0E9439086E
:1024700084E40E9439080E94980E6B017C019091BF
:10248000F103E091F203F091F3038181292F20956C
:10249000822381838281892B8283A3E2B0E011971A
:1024A000F1F78081892311F40C94751B0E94FC07BD
:1024B0008CEC0E9439088EEB0E943908DE011196DF
:1024C000AE014A5F5F4FE8E0EE2EF12C10E001E034
:1024D0006091F103E091F203F091F303F89421810C
:1024E000262B21832281762F709527232283C101F9
:1024F0000197F1F72181722371832281262B228398
:1025000023E230E0C9010197F1F720817894EFECE4
:10251000F0E03197F1F7622309F0102B000F91E002
:10252000E91AF108A9F61D93A417B50761F66981A8
:102530007A81072E000C880B990B0E94971D20E0D2
:1025400030E040E85DE30E94F61D2DC18091D50387
:1025500090E028173907B1F1220F331FF901E6582F
:10256000FE4F80818093D30381818093D4031093A5
:10257000D50360E00E94D30C25C00091A701809193
:10258000D50390E028173907A9F0220F331FF9016E
:10259000E658FE4F80818093D30391819093D403BA
:1025A0001093D50360E00E94D30C60E08091D403C7
:1025B0000E94D30C013019F48091D303E8C002309B
:1025C00009F0F3C08091D403E2C08091D50390E07C
:1025D0002817390709F472C0220F331FF901E65892
:1025E000FE4F80818093D30381818093D403109325
:1025F000D50360E061C08091D50390E028173907CA
:10260000A9F0220F331FF901E658FE4F8081809315
:10261000D30391819093D4031093D50360E00E947B
:10262000D30C60E08091D4030E94D30C60E08091D1
:10263000D3030E94D30C8091D3030E94DE0B8C0144
:102640000E94290D61E070E0012B11F460E070E060
:10265000660F771F680F711D072E000C880B990BF2
:102660009CC08091A7014091D50350E02417350705
:1026700011F00C94861B682F70E04091D60350E057
:102680006417750711F00C94861B62E0813091F499
:102690008091D3030E94D30C60E08091D3030E9409
:1026A000D30C8091D3030E94DE0B61E0892B49F4A7
:1026B00060E007C08091D4030E94D30C0E94290DD2
:1026C000682F70E080E090E00E94951D6CC0109132
:1026D000A701220F331FF901E05FFE4F008160E088
:1026E000802F0E94D30C802F0E94470E21E00B9771
:1026F0000CF020E0122781E00E94E205812F0E9469
:10270000E20553C01A8219821C821B821E821D821E
:102710006091CA037091CB036115710541F040913E
:10272000CE035091CF03CE0101960E943403FD8069
:102730000F2D1E8184E00E94E2058F2D0E94E2058C
:10274000E12CF12CE016F106ACF48D819E81E816A7
:10275000F90648F489819A81009729F0FC01EE0D71
:10276000FF1D808101C080E00E94E205AFEFEA1A00
:10277000FA0AE8CF89819A810E943A2116C060E066
:10278000812F0E94D30C812F0E94DE0B02C00E9479
:10279000470EBC01990F880B990B0E94971D03C02F
:1027A00060E070E0CB010E94E7050E94520B30C54B
:1027B0001091A601E12FF0E00D3009F46CC404F58E
:1027C000083009F444C0ACF4033009F44AC40530BD
:1027D00009F01CC586E090E00E94C105BC018DEDAA
:1027E00093E00E949B0688E090E00E94C105BC0136
:1027F00029C00A30E9F00CF454C00B30F1F106C5E1
:10280000013209F4F5C454F40E3109F4C2C40032A3
:1028100009F4C7C4043109F0F9C491C4093209F4B8
:1028200039C1023309F4F0C4023209F0EFC4C4C460
:1028300087E090E00E94C105BC01193019F48DEDCC
:1028400093E002C087ED93E00E949B06DFC4809175
:10285000A7019091A8016091A9012091AA0181117D
:1028600005C0422F892F0E94F30A04C0462F692F0A
:102870000E941B0B0E94C00AC9C42091A701CF016E
:10288000880F991FFC01E658FE4F213011F480811A
:1028900001C081811091A801153B08F0B7C490E0F8
:1028A000ACC48091E50390E0E817F90719F0812F97
:1028B0000E94F1088091A70180939C018091A8015A
:1028C00080939D018091A90180939E018091AA012E
:1028D00080939F01C0909C01D0909D01E0909E014B
:1028E000F0909F0146015701B7FAB094B7F8B09441
:1028F00020E030E0A901C701B6010E94901D082F19
:10290000001F0027001F87FF05C0782C692C5A2C58
:102910004B2C04C07C2C6D2C5E2C4F2C11E02B8991
:102920003C894D895E892D873E874F87588B20E0F3
:102930003EE34CE156E4C701B6010E94632087FFE5
:10294000A4C020E030EE49E754ECC701B6010E9474
:10295000901D18160CF099C0B12C60E070E080E07A
:102960009FE31B1541F020E030E040E251E40E947B
:10297000BB1FB394F6CF272D362D452D542D0E9425
:102980004F1F4B015C010E9434209B01AB01E0E032
:10299000CA016AE070E00E947420A1E0B0E0AC0FD0
:1029A000BD1FAE0FB11D8AE0689F401911244C93E2
:1029B000EF5FAB01672B61F79E2F900F812F890F7F
:1029C000853018F014E0191BAACF94E0981B00235F
:1029D00051F0ADE0B0E0AC0FBD1FA90FB11D91E209
:1029E0009C9395E0981B8E2F9E0F092F492F481B13
:1029F000882369F0EDE0F0E0EC0FFD1FE40FF11D1E
:102A0000DE01A80FB11D4C9140838150EECF112300
:102A1000E1F1B90180E090E00E94951D9B01AC01BD
:102A2000C501B4010E944E1FE02FF0E03197ADE0E8
:102A3000B0E0AC0FBD1FEA0FFB1F2081205F208399
:102A4000100F101711F120E030E040E251E40E9435
:102A5000F61D6B017C010E942D20BB24B394B00EA7
:102A6000EDE0F0E0EC0FFD1FE00FF11D6083072E9D
:102A7000000C880B990B0E94971D9B01AC01C701AC
:102A8000B6010E944E1F0B2DDCCFCE010D960E9489
:102A9000A508BCC38091250490E0E817F90761F010
:102AA000EE0FFF1FE658FE4F808180932304818143
:102AB00080932404109325048091A701813009F0AC
:102AC00084C1F090A801E090A9018AE090E00E9402
:102AD000C1058C018CE090E00E94C105B82EE09108
:102AE000AE014E2F50E08FEA91E0ECEECE2EE1E009
:102AF000DE2ED6019D012C5E3140241735072CF4C3
:102B0000FC012191CF012D93F5CFFA01E451FE4F45
:102B100010820E940F0D81E0E11001C080E08093DF
:102B200027048F2D0E94930C81E080932804EEE30C
:102B3000F4E0E12CF12CD6018D916D01882349F050
:102B4000B3E1EB16F10429F081932FEFE21AF20AB8
:102B5000F2CFF0923D04E0923C04F701ED5DFB4FB3
:102B6000138E2AEFA7012403C001259F900D112485
:102B70000817190734F00131110524F000E110E0C5
:102B800001C08C0110933A04009339042B2D20319D
:102B90000CF02FE027FD2FEF20933B0410161106B9
:102BA0000CF066C0E9E2F4E080E090E0382F08170E
:102BB000190739F001968131910509F4CBC01192C2
:102BC000F5CF803109F4C6C010E007E070E2D72EDF
:102BD000412F50E04E155F050CF041C0C12CDA01C9
:102BE000A25CBB4F0C9DC001112488599F4FFC0172
:102BF0006491603431F16491EC910E2E000CFF0B66
:102C000070E0E617F707D9F4F7E0CF9EB001112482
:102C1000A0E0B0E06F5F7F4FFB01EA0FFB1FE859B8
:102C2000FF4FC490E32FF0E0ED5DFB4FC6823F5FA6
:102C3000303139F01196A630B10571F702C0C39456
:102C4000D1CFFC018491803429F4FA01ED5DFB4F72
:102C5000D38E11501F5F303109F0BACF7BC0E32F04
:102C6000F0E0ED5DFB4F16823F5F3031C1F772C07F
:102C70008017910749F4E9E2F4E089E394E01192C6
:102C80008E179F07E1F766C0EE27FF27E01BF10BC9
:102C9000CF0166E070E00E948820F0933A04E09350
:102CA0003904AB0190E037E060E2962E4E155F05E7
:102CB0000CF047C0812CBA01625C7B4F6B01389DE0
:102CC000D0011124BD0168597F4FFB01B490F0E49D
:102CD000BF1619F1FB017490F601A0800A2C000CBC
:102CE000BB08E72DF0E0AE16BF06A1F4FD01E80F2A
:102CF000F11D87FDFA95E759FF4FD490E92FF0E0D9
:102D0000ED5DFB4FD6829F5F903131F08F5F863053
:102D100069F702C08394D3CF80E0FB0164916034F3
:102D200031F4FA01ED5DFB4F938E415051094F5F35
:102D30005F4F903109F0BACF10933A0400933904F1
:102D400009C0E92FF0E0ED5DFB4F16829F5F9031E7
:102D5000C1F7F2CF022E000C330BA101421B530B23
:102D6000E9E2F4E057FD11C029E334E08081042E4C
:102D700001C0880F0A94EAF781932E173F07B1F735
:102D800080912704882391F01BC089E394E02750A9
:102D90003109408150E0022E02C0559547950A94B2
:102DA000E2F741938E179F07A1F7EACFE9E2F4E03B
:102DB00029E334E08081809581932E173F07D1F776
:102DC00089E294E00E94360C21C2823009F0A6C04C
:102DD000C090A801E090A9018AE090E00E94C1059E
:102DE000D82E8CE090E00E94C105F82E2091AE0113
:102DF00030E0AFEAB1E000E012E0F80180E090E0FE
:102E0000821793073CF48031910521F04D91419355
:102E10000196F6CF0E940F0D81E0809327048C2D40
:102E20000E94930CFFE0FD150CF4F0C127E02F1574
:102E30000CF4ECC1EE2009F4E9C1809127044F2D78
:102E40000F2C000C550BED2DDD0CFF0B882391F1A1
:102E500088E090E0841B950B6FEF01C0660F8A95A8
:102E6000EAF7ED5DFB4F70E022273327241B350B7B
:102E7000CF018352944097FD16C08681D62ED8226A
:102E8000D8018C911F1444F490E0042E02C0959553
:102E900087950A94E2F705C0022E01C0880F0A94B4
:102EA000EAF78D2986837F5F31960F5F1F4FE71208
:102EB000DFCF86CF88E090E0841B950B6FEF01C0D9
:102EC000660F8A95EAF7ED5DFB4F70E0882799273A
:102ED000841B950B9F012352344037FD18C0A681F7
:102EE000DA2ED622D8012C9130E0209530951F148F
:102EF0003CF4042E02C0359527950A94E2F705C0EC
:102F0000082E01C0220F0A94EAF72D2926837F5F3D
:102F100031960F5F1F4FE712DDCF52CF833009F09C
:102F200075C1E090A8011091A9018AE090E00E948B
:102F3000C105F82E8CE090E00E94C105082F0E9488
:102F40000F0D81E0809327048E2D0E94930C2AE0C0
:102F50008F2D622F0E946820392F90E0FC01EE0F28
:102F6000FF1F8E0F9F1FFC01E259FD4FE491E0937C
:102F70002904FC01E159FD4FE491E0932A04FC018E
:102F8000E059FD4FE491E0932B0410922C04E32FC1
:102F9000F0E0CF01880F991F8E0F9F1FFC01E259AF
:102FA000FD4FE491E0932D04FC01E159FD4FE491C4
:102FB000E0932E04FC01E059FD4FE491E0932F04CF
:102FC000802F0E946820292F90E0FC01EE0FFF1F48
:102FD0008E0F9F1FFC01E259FD4FE491E0933204F4
:102FE000FC01E159FD4FE491E0933304FC01E05909
:102FF000FD4FE491E093340410923504E22FF0E0A9
:10300000CF01880F991F8E0F9F1FFC01E259FD4FC2
:10301000E491E0933604FC01E159FD4FE491E09323
:103020003704FC01E059FD4FE491E093380411238B
:1030300031F088E2809330048093310404C0109210
:10304000300410923104809127048111B9CEE9E255
:10305000F4E0808180958193B4E0E933FB07C9F700
:10306000AFCE8091D50390E0E817F90761F0EE0F3D
:10307000FF1FE658FE4F80818093D30381818093A8
:10308000D4031093D50311E08091A701811101C0F1
:1030900010E061E06BC00091A20110E00350110943
:1030A0006AE971E0CE010D960E945F03B0EAEB2E53
:1030B000B1E0FB2EC701805A9140801791070CF5B3
:1030C000F701868189831A82C988DA88FFEFCF1ACF
:1030D000DF0AB601CE010D960E940D03882369F028
:1030E0002D853E8589899A89BE016F5F7F4F820F4A
:1030F000931F0E949E22DA8AC98A2FEFE21AF20AEF
:10310000D9CF1A8219821C821B821E821D826D8574
:103110007E856115710531F049895A89CE01019684
:103120000E943403CE0101960E94940A89819A81FB
:103130000E943A218D859E850E943A2167C0809128
:10314000D50390E0E817F90761F0EE0FFF1FE6588E
:10315000FE4F80818093D30381818093D4031093A9
:10316000D5031091A70161E0123040F48091D303A0
:103170000E94D30C612F8091D30337C08091D40378
:103180000E94D30C61E0123009F460E08091D40316
:103190002CC061E0812F0E94D30C6091A701812F88
:1031A00024C061E0812F0E94D30C6091A70170E0E0
:1031B000812F0E94E80D2AC061E0812F0E94D30C6C
:1031C00086E090E00E94C1051816190634F440E02C
:1031D00050E0BA010E942A0919C0809170008B7FCB
:1031E0008093700060E08091C9030E94070C0EC0BC
:1031F0001091A701153B50F4CF010E948C0D812F37
:1032000090E00E945A0B02C00E94980E0E940F0686
:103210001092110200912202013091F128F0023047
:1032200009F484C00C941F1010911702123099F009
:1032300048F41123C9F0113011F00C941F100E94B2
:1032400012070BC0143069F0183011F00C941F10E5
:103250000E94D40602C00E94FF06109316020C942E
:103260001F100E94EB06F9CF80911602882311F4FB
:103270000C941F10109216020E94C6060C941F1088
:1032800066E87BE080E090E00E94380D0E94971D88
:1032900020E030E048E652E40E94BB1F0E94342048
:1032A000162F80911802811104C00E94980E00937D
:1032B000180286E00E94470EBC01990F880B990BFB
:1032C000611571058105910511F00E94871D0E940D
:1032D000391D2FEF210F2F3018F00E9412071EC04A
:1032E0001B30A0F022E030E040E050E00E94B41E2D
:1032F000662329F0613091F40E94D40602C00E9436
:10330000EB0668EC70E080E090E006C00E94FF06EB
:1033100060E971E080E090E00E945E0E64E670E09B
:1033200080E090E00E945E0E0C941F108091560485
:103330000E94DE0B182F809157040E94DE0B110FA4
:10334000812B2091000130910101273E310534F09D
:1033500026EE30E03093010120930001813079F0B6
:1033600044F481110C941F100E9412078AE090E02F
:103370001FC0823089F0833009F10C941F100E9425
:10338000120780912002909121028230910514F45D
:103390000C941F1001970CC00E941207809120020C
:1033A000909121028431910514F00C941F10019624
:1033B00090932102809320020C941F108091200290
:1033C000909121028A30910521F40E94FF060C940D
:1033D0001F100A9724F40E94EB060C941F100E9401
:1033E000D4060C941F1020812850273010F00C9424
:1033F0008C1076956795579547950C94BB10813442
:103400009105A105B10508F071C08C309105A105A9
:10341000B10511F00C94F8104CE251E060E070E05E
:1034200086E291E00E942A096CE271E080E090E07F
:103430000E945E0E87E490E00E94D0050C94231158
:1034400088309105A105B10511F00C9411114CE2E1
:1034500051E060E070E089E891E00E942A096CE2A6
:1034600071E080E090E00E945E0E8CE890E0E4CF96
:103470000797A105B10511F00C94231184E0809306
:1034800017020E94410B20E04AE06AE082E00C94BF
:1034900021118C319105A105B10589F44CE251E06F
:1034A00060E070E089EB91E00E942A096CE271E033
:1034B00080E090E00E945E0E83EA90E0BDCF4897E6
:1034C000A105B10511F00C9423114CE251E060E02C
:1034D00070E08AE491E00E942A096CE271E080E0E9
:1034E00090E00E945E0E8EE590E0A6CF87349105B5
:1034F000A105B105D1F482E08093220288E790E033
:1035000090930101809300010E94C6064CE251E0B5
:1035100060E070E08EE591E00E942A090E94410B74
:103520004AE060E080E00C940E1188349105A1051A
:10353000B10508F051C085349105A105B105B9F474
:103540008CED90E090930101809300011092220293
:103550000E94C6064CE251E060E070E086E291E035
:103560000E942A090E94410B4AE00C94F61086340E
:103570009105A105B105C0F088EC90E090930101A0
:103580008093000181E0809322020E94C6064CE2F3
:1035900051E060E070E08AE491E00E942A090E9414
:1035A000410B40E06AE0BECF82349105A105B10530
:1035B00011F00C9423114CE251E060E070E08CE2D9
:1035C00092E00E942A096CE271E080E090E00E94A3
:1035D0005E0E81ED90E030CF82359105A105B105F9
:1035E00089F44CE251E060E070E08DE492E00E94EA
:1035F0002A096CE271E080E090E00E945E0E88EEA5
:1036000090E01ACF83359105A105B105C0F48A3445
:103610009105A105B10511F00C9423114CE251E084
:1036200060E070E085E992E00E942A096CE271E0B6
:1036300080E090E00E945E0E8FEF90E0FDCE8A3534
:103640009105A105B10589F44CE251E060E070E01C
:103650008FEE91E00E942A096CE271E080E090E038
:103660000E945E0E8AEB90E0E7CE8E359105A105B3
:10367000B10511F00C9423114CE251E060E070E0D0
:103680008EE591E00E942A096CE271E080E090E012
:103690000E945E0E85E790E0CFCE0E94980E0091CA
:1036A000E0011091E1012091E2013091E301DC01A0
:1036B000CB01801B910BA20BB30B89379105A105A0
:1036C000B10510F40C942311109217020E94980E69
:1036D0006093E0017093E1018093E2019093E30134
:1036E0000C942311822F0C941D120E94980EDC0161
:1036F000CB018C199D09AE09BF098E3E9240A105F0
:10370000B10510F40C943F120C945612220F331F83
:10371000F901E658FE4F90819093D30391819093E5
:10372000D4031093D5038093D6030C944513809152
:10373000CA039091CB030E943A2180911404909186
:1037400015040C943A21FC018FEF8083818312824F
:103750000895CF93DF9310920A031092090388EE25
:1037600093E0A0E0B0E080930B0390930C03A09350
:103770000D03B0930E032AE531E030930803209344
:10378000070325EC30E0309314032093130324EC5B
:1037900030E0309316032093150320EC30E0309393
:1037A00018032093170321EC30E030931A03209381
:1037B000190322EC30E030931C0320931B0326EC0A
:1037C00030E030931E0320931D03109220031092CB
:1037D0002103109222031092230310926B04109283
:1037E0006A0480936C0490936D04A0936E04B0936C
:1037F0006F048CE691E090936904809368048DE5F2
:1038000094E00E94A31BE7EBF2E0E491E0936704ED
:10381000E3EAF2E0E491F0E0EE0FFF1FE457FD4F22
:1038200085919491909366048093650461E08DE0A6
:103830000E94D30C84E090E0909362048093610432
:103840008CE090E00E94A220909364048093630433
:103850000E94410B80E18093580481E180935904D8
:1038600083E080935A04D9E0D0935204CAE0C09315
:10387000530482E080935404D0935604C0935704B9
:1038800060E089E00E94D30C60E0809157040E94C0
:10389000D30C83E294E00E94A31B6AE971E084E107
:1038A00094E00E945F0360E082E00E94D30C0E94DB
:1038B000C20961E083E00E94D30C60E083E00E94D3
:1038C000070C8FEF93E00E94A31B88E08093C9034D
:1038D0008DEE93E00E94A31B83EE93E00E94A31B56
:1038E00096E09093DD0387E08093DE03D093DF03BF
:1038F0009093E2038093E10361E00E94D30C95E092
:103900009093D70384E08093D803C093D903909316
:10391000DC038093DB0361E00E94D30C83ED93E032
:103920000E94A31B8091C8038C30A0F491E0980FF3
:103930009093C8038093D00390E0FC01EE0FFF1F2B
:103940008E0F9F1FFC01EC55FC4F88EB9BE0928390
:10395000818303C08FEF8093D00360E971E08AEC2C
:1039600093E00E945F0381E090E090937504809360
:1039700074041092760510927705109278051092D3
:10398000790510927A0510927B0510927C051092B1
:103990007D0510927E0510927F0510928005109291
:1039A0008105109282051092830510928505109270
:1039B0008405109286051092870510928805109252
:1039C000890510928A0510928B0510928C05109231
:1039D0008D0510928E05DF91CF9108958F929F9261
:1039E000AF92BF92CF92DF92EF92FF92CF93DF938D
:1039F000EC01688179818A819B816115710581055E
:103A0000910521F464E279ED8BE597E02DE133EF48
:103A100041E050E00E94B41E49015A019B01AC01F3
:103A2000A7EAB1E40E94D31E6B017C01ACEEB4EFB7
:103A3000A50194010E94E11EDC01CB018C0D9D1DAE
:103A4000AE1DBF1DB7FF03C00197A109B048888311
:103A50009983AA83BB83BC01CD019F77DF91CF916E
:103A6000FF90EF90DF90CF90BF90AF909F908F909E
:103A700008958F929F92AF92BF92CF92DF92EF9272
:103A8000FF92609102017091030180910401909175
:103A90000501611571058105910521F464E279ED57
:103AA0008BE597E02DE133EF41E050E00E94B41E3A
:103AB00049015A019B01AC01A7EAB1E40E94D31E5F
:103AC0006B017C01ACEEB4EFA50194010E94E11EF4
:103AD000DC01CB018C0D9D1DAE1DBF1DB7FF03C0CA
:103AE0000197A109B0488093020190930301A0932C
:103AF0000401B0930501BC01CD019F77FF90EF90C9
:103B0000DF90CF90BF90AF909F908F90089560937B
:103B100002017093030180930401909305010895BD
:103B20000E94D21D08F481E00895E89409C097FB33
:103B30003EF490958095709561957F4F8F4F9F4F84
:103B40009923A9F0F92F96E9BB279395F6958795C8
:103B500077956795B795F111F8CFFAF4BB0F11F48B
:103B600060FF1BC06F5F7F4F8F4F9F4F16C0882332
:103B700011F096E911C0772321F09EE8872F762F68
:103B800005C0662371F096E8862F70E060E02AF0A9
:103B90009A95660F771F881FDAF7880F9695879595
:103BA00097F90895990F0008550FAA0BE0E8FEEF6A
:103BB00016161706E807F907C0F012161306E407F1
:103BC000F50798F0621B730B840B950B39F40A26EA
:103BD00061F0232B242B252B21F408950A2609F4C8
:103BE000A140A6958FEF811D811D08950E94091E99
:103BF0000C947A1E0E946C1E38F00E94731E20F0F6
:103C0000952311F00C94631E0C94691E11240C94DE
:103C1000AE1E0E948B1E70F3959FC1F3950F50E06E
:103C2000551F629FF001729FBB27F00DB11D639F6E
:103C3000AA27F00DB11DAA1F649F6627B00DA11D14
:103C4000661F829F2227B00DA11D621F739FB00DBA
:103C5000A11D621F839FA00D611D221F749F33272A
:103C6000A00D611D231F849F600D211D822F762FC3
:103C70006A2F11249F5750409AF0F1F088234AF0A0
:103C8000EE0FFF1FBB1F661F771F881F915050400C
:103C9000A9F79E3F510580F00C94631E0C94AE1E54
:103CA0005F3FE4F3983ED4F3869577956795B79593
:103CB000F795E7959F5FC1F7FE2B880F911D9695AD
:103CC000879597F9089597F99F6780E870E060E01D
:103CD00008959FEF80EC089500240A9416161706A5
:103CE00018060906089500240A94121613061406ED
:103CF00005060895092E0394000C11F4882352F050
:103D0000BB0F40F4BF2B11F460FF04C06F5F7F4F07
:103D10008F4F9F4F089557FD9058440F551F59F0EE
:103D20005F3F71F04795880F97FB991F61F09F3FA8
:103D300079F087950895121613061406551FF2CFD1
:103D40004695F1DF08C0161617061806991FF1CF21
:103D500086957105610508940895E894BB27662748
:103D60007727CB0197F90895052E97FB1EF4009451
:103D70000E94CB1E57FD07D00E941D1F07FC03D0D9
:103D80004EF40C94CB1E50954095309521953F4FA5
:103D90004F4F5F4F089590958095709561957F4F37
:103DA0008F4F9F4F08950E943F1FA59F900DB49F76
:103DB000900DA49F800D911D11240895B7FF0C94C0
:103DC000D31E0E94D31E821B930B08952F923F9205
:103DD0004F925F926F927F928F929F92AF92BF921B
:103DE000CF92DF92EF92FF920F931F93CF93DF93C7
:103DF000CDB7DEB7CA1BDB0B0FB6F894DEBF0FBE24
:103E0000CDBF09942A88398848885F846E847D8470
:103E10008C849B84AA84B984C884DF80EE80FD8072
:103E20000C811B81AA81B981CE0FD11D0FB6F894E8
:103E3000DEBF0FBECDBFED010895A1E21A2EAA1B71
:103E4000BB1BFD010DC0AA1FBB1FEE1FFF1FA2174A
:103E5000B307E407F50720F0A21BB30BE40BF50B47
:103E6000661F771F881F991F1A9469F760957095D0
:103E7000809590959B01AC01BD01CF010895A29F53
:103E8000B001B39FC001A39F700D811D1124911D2E
:103E9000B29F700D811D1124911D08955058BB27AC
:103EA000AA270E94661F0C947A1E0E946C1E38F08E
:103EB0000E94731E20F039F49F3F19F426F40C94ED
:103EC000691E0EF4E095E7FB0C94631EE92F0E9437
:103ED0008B1E58F3BA17620773078407950720F003
:103EE00079F4A6F50C94AD1E0EF4E0950B2EBA2FC6
:103EF000A02D0B01B90190010C01CA01A0011124F0
:103F0000FF27591B99F0593F50F4503E68F11A169B
:103F1000F040A22F232F342F4427585FF3CF46952C
:103F200037952795A795F0405395C9F77EF41F164E
:103F3000BA0B620B730B840BBAF09150A1F0FF0F18
:103F4000BB1F661F771F881FC2F70EC0BA0F621F04
:103F5000731F841F48F4879577956795B795F795F4
:103F60009E3F08F0B0CF9395880F08F09927EE0F89
:103F70009795879508950E94CF1F0C947A1E0E94F2
:103F8000731E58F00E946C1E40F029F45F3F29F028
:103F90000C94631E51110C94AE1E0C94691E0E9469
:103FA0008B1E68F39923B1F3552391F3951B550BA1
:103FB000BB27AA2762177307840738F09F5F5F4FFC
:103FC000220F331F441FAA1FA9F335D00E2E3AF03B
:103FD000E0E832D091505040E695001CCAF72BD053
:103FE000FE2F29D0660F771F881FBB1F26173707A4
:103FF0004807AB07B0E809F0BB0B802DBF01FF27D6
:1040000093585F4F3AF09E3F510578F00C94631E31
:104010000C94AE1E5F3FE4F3983ED4F386957795FB
:104020006795B795F7959F5FC9F7880F911D96958E
:10403000879597F90895E1E0660F771F881FBB1FEA
:10404000621773078407BA0720F0621B730B840B97
:10405000BA0BEE1F88F7E09508950E94342068940B
:10406000B1110C94AE1E08950E94931E88F09F57C4
:1040700098F0B92F9927B751B0F0E1F0660F771F8C
:10408000881F991F1AF0BA95C9F714C0B13091F082
:104090000E94AD1EB1E008950C94AD1E672F782FDD
:1040A0008827B85F39F0B93FCCF386957795679547
:1040B000B395D9F73EF490958095709561957F4FB3
:1040C0008F4F9F4F08950E94D21D08F48FEF0895DF
:1040D000991B79E004C0991F961708F0961B881F5A
:1040E0007A95C9F780950895AA1BBB1B51E107C0BB
:1040F000AA1FBB1FA617B70710F0A61BB70B881F78
:10410000991F5A95A9F780959095BC01CD01089506
:1041100097FB072E16F4009407D077FD09D00E9474
:10412000742007FC05D03EF4909581959F4F08952B
:10413000709561957F4F0895EE0FFF1F0590F491E4
:10414000E02D09940F931F93CF93DF938230910555
:1041500010F482E090E0E0919A05F0919B0520E058
:1041600030E0A0E0B0E0309719F140815181028148
:10417000138148175907C8F08417950769F41097F9
:1041800031F012960C93129713961C9327C000934C
:104190009A0510939B0522C02115310519F042178D
:1041A000530718F49A01BD01EF01DF01F801DBCFDD
:1041B00021153105F9F0281B390B2430310580F425
:1041C0008A819B816115710521F0FB0193838283B4
:1041D00004C090939B0580939A05FE01329644C0DB
:1041E000FE01E20FF31F819391932250310939832D
:1041F00028833AC02091980530919905232B41F4EA
:104200002091080130910901309399052093980578
:1042100020910601309107012115310541F42DB798
:104220003EB740910A0150910B01241B350BE091E0
:104230009805F0919905E217F307A0F42E1B3F0BA8
:104240002817390778F0AC014E5F5F4F2417350708
:1042500048F04E0F5F1F5093990540939805819346
:10426000919302C0E0E0F0E0CF01DF91CF911F9188
:104270000F910895CF93DF93009709F481C0FC015B
:10428000329713821282A0919A05B0919B051097E4
:1042900081F420813181820F931F20919805309104
:1042A00099052817390751F5F0939905E09398057A
:1042B00067C0ED0120E030E0CE17DF0740F44A810F
:1042C0005B819E0141155105F1F0EA01F5CFD383E1
:1042D000C28340815181840F951FC817D90759F4B3
:1042E00088819981840F951F0296918380838A81AA
:1042F0009B81938382832115310529F4F0939B05DB
:10430000E0939A053DC0E901FB83EA834991599105
:10431000C40FD51FEC17FD0761F480819181840FD4
:10432000951F0296E90199838883828193819B83FB
:104330008A83E0E0F0E012968D919C9113970097AC
:1043400019F0FD01DC01F7CF8D919C9111979D0132
:104350002E5F3F4F820F931F209198053091990552
:104360002817390769F4309729F410929B051092A9
:104370009A0502C013821282B0939905A093980502
:10438000DF91CF910895A0E0B0E0E9ECF1E20C9468
:10439000EA1EEC01009721F4CB010E94A220B4C0D8
:1043A000FC01E60FF71F9C0122503109E217F307C9
:1043B00008F4A8C0D9010D911C9111970617170791
:1043C000B0F00530110508F49BC0C80104978617AA
:1043D000970708F495C002501109061B170B0193AB
:1043E00011936D937C93CF010E943A2189C05B01A8
:1043F000A01AB10A4C01800E911EA0919A05B091AD
:104400009B05612C712CE12CF12C109709F446C00E
:104410008D919C911197A815B905B1F56C0142E0F9
:10442000C40ED11CCA14DB0478F14C018A189B0815
:10443000640142E0C40ED11C1296BC9012971396F0
:10444000AC91B5E0CB16D10440F0B282A383918247
:104450008082D9016D937C9309C00E5F1F4F800F3E
:10446000911FF90191838083EB2DFA2FE114F10460
:1044700031F0D7011396FC93EE93129741C0F0935D
:104480009B05E0939A053CC06816790608F43C0148
:104490007D0112960D90BC91A02DB7CF809198050B
:1044A0009091990588169906E1F466167706C8F486
:1044B0008091060190910701009741F48DB79EB756
:1044C00040910A0150910B01841B950BE817F907E5
:1044D000C8F4F0939905E0939805F901718360831E
:1044E0000FC0CB010E94A2207C01009759F0A801C7
:1044F000BE010E948E22CE010E943A21C70104C053
:10450000CE0102C080E090E0CDB7DEB7EEE00C94C3
:10451000061F81E090E0F8940C94A522FB01DC01D9
:1045200002C001900D9241505040D8F70895DC012F
:1045300001C06D9341505040E0F70895FB01DC014C
:1045400001900D920020E1F7089511E0C4E7D1E059
:1045500004C0FE010E949C202196C537D107C9F7EF
:04456000F894FFCFFD
:10456400C8000100000000009C05800020202020DD
:104574000E000F00100011001200130014001500AB
:1045840020202020000001000800200040008000BE
:10459400000100043F065B4F666D7D077F6F777CEB
:1045A400395E7971BF86DBCFE6EDFD87FFEFF7FC5F
:1045B400B9DEF9F100400000000032029F01C90198
:1045C4007F02FA01D801EC0100000000F602EB02C0
:1045D4000803DD02E402E102DE02FFFF0B0C090A1C
:1045E40010110E0F06070504150D0814060705041F
:0C45F400312E322E313033000D0A000051
:107E0000112484B714BE81FFF0D085E080938100F7
:107E100082E08093C00088E18093C10086E0809377
:107E2000C20080E18093C4008EE0C9D0259A86E02C
:107E300020E33CEF91E0309385002093840096BBD3
:107E4000B09BFECF1D9AA8958150A9F7CC24DD24C4
:107E500088248394B5E0AB2EA1E19A2EF3E0BF2EE7
:107E6000A2D0813461F49FD0082FAFD0023811F036
:107E7000013811F484E001C083E08DD089C08234E0
:107E800011F484E103C0853419F485E0A6D080C0E4
:107E9000853579F488D0E82EFF2485D0082F10E0AE
:107EA000102F00270E291F29000F111F8ED06801E7
:107EB0006FC0863521F484E090D080E0DECF843638
:107EC00009F040C070D06FD0082F6DD080E0C81688
:107ED00080E7D80618F4F601B7BEE895C0E0D1E017
:107EE00062D089930C17E1F7F0E0CF16F0E7DF06D8
:107EF00018F0F601B7BEE89568D007B600FCFDCFD4
:107F0000A601A0E0B1E02C9130E011968C91119780
:107F100090E0982F8827822B932B1296FA010C0160
:107F200087BEE89511244E5F5F4FF1E0A038BF0790
:107F300051F7F601A7BEE89507B600FCFDCF97BE46
:107F4000E89526C08437B1F42ED02DD0F82E2BD052
:107F50003CD0F601EF2C8F010F5F1F4F84911BD097
:107F6000EA94F801C1F70894C11CD11CFA94CF0C13
:107F7000D11C0EC0853739F428D08EE10CD085E9AC
:107F80000AD08FE07ACF813511F488E018D01DD067
:107F900080E101D065CF982F8091C00085FFFCCF94
:107FA0009093C60008958091C00087FFFCCF809118
:107FB000C00084FD01C0A8958091C6000895E0E648
:107FC000F0E098E1908380830895EDDF803219F02E
:107FD00088E0F5DFFFCF84E1DECF1F93182FE3DFCA
:107FE0001150E9F7F2DF1F91089580E0E8DFEE27F6
:047FF000FF270994CA
:027FFE00040479
:0400000300007E007B
:00000001FF
